:020000040000FA
:2B000000FFFF62FF2900FFFFFFFFFFFFFFFFFFFFFFFFFFFFFFFFFFFFFFFFFFFFFFFFFFFFFFFFFFFFFFFFFFFFFFFFFF72
:2B002B00C073DDC11D3CD71B5CD7730777705DCF735D0F00000000183CCF1B5CD7733DD71B5CD775BDC175DDC105F9A5
:2B005600A0280AA1108AA2108AA2288442288AA2288A0200000000108AA2108AA2288AA2108AA2280AA1280AA180DF91
:2B008100000000000000000000000000000000000000000000000000000000000000000000000000000000000080E7ED
:2B00AC00000000000000000000000000000000000000000000000000000000000000000000000000000000000080E7C2
:2B00D700000000000000000000000000000000000000000000000000000000000000000000000000000000000080E797
:2B010200000000000000000000000000000000000000000000000000000000000000000000000000000000000080E76B
:2B012D00020000000000000000000000000000000000020000000000000000000000000000000000000000000080E73C
:2B015800000000000000000000000000000000000000000000000000000000000000000000000000000000000080E715
:2B01830000000000000000000000000000000000006000000000000000000000000000000000000000000000008081F0
:2B01AE00000000000000000000000000000000000008000000000000000000000000000000000000000000000000EF2F
:2B01D900040000000000000000000000000000000000000000000000000000000000000000000000000000000080E394
:2B020400000000000000000000000000000000000000000000000000000000000000000000000000000000000080E768
:2B022F00000000000000000000000000000000000000000000000000000000000000000000000000000000000080E73D
:2B025A00000000000000000000000000000000000000000000000000000000000000000000000000000000000080E712
:2B028500000000000000000000000000000000000018010000000000000000000000000000000000000000000000FF36
:2B02B000040000000000000000000000000000000040000000000000000000000000000000000000000000000080A7B8
:2B02DB00000000000000000000000000000000000000000000000000000000000000000000000000000000000080E791
:2B030600040000000000000000000000000000000004000000000000000000000000000000000000000000000080A3A1
:2B033100000000000000000000000000000000000000000000000000000000000000000000000000000000000080E73A
:2B035C00000000000000000000000000000000000000000000000000000000000000000000000000000000000080E70F
:2B038700000002000A02000082100080000000000020080000000000000000000010000000000000000000000000CE25
:2B03B200000000000000000080004080000000000000080000000000000000000000000000000000000000000008E3ED
:2B03DD00020000000000000000000000000000000000000000000000000000000000000000000000000000000080E58E
:2B040800020002000A02000002104000000000000000000000000000000000000010000000000000000000000000E275
:2B043300020000000000000000000000000000000020000000000000000000000000000000000000000000000080C735
:2B045E00020000000000000000000000000000000000000000000000000000000000000000000000000000000080E50C
:2B048900000000000000000000000000000000000000000000000000000000000000000000000000000000000008EF51
:2B04B400800008800008800008800008800008800008000000000020000220000220000220000220000220000280E7BA
:2B04DF00800008800008800008800008800008800008000000000020000220000220000220000220000220000280E78F
:2B050A00000000000000000000000000000000000000000000000000000000000000000000000000000000000080E75F
:2B053500020000000000000000000000000000000000000000000000000000000000000000000000000000000080E534
:2B056000000000000000000000000000000000000000000000000000000000000000000000000000000000000008EF79
:2B058B00000000000000000000000000000000000000000000000000000000000000000000000000000000000008EF4E
:2B05B600000000000000000000000000000000000000000000000000000000000000000000000000000000000008EF23
:2B05E100000000000000000000000000000000000000000000000000000000000000000000000000000000000008EFF8
:2B060C00020000000000000000000000000000000000000000000000000000000000000000000000000000000080E55C
:2B063700000000000000000000000000000000000000000000000000000000000000000000000000000000000080E731
:2B066200000000000000000000000000000000000000080000000000000000000000000000000000000000000080EFF6
:2B068D000000000000000000000000000000000000160000000000000000000000000000000000000000000000809616
:2B06B800120000000000000000000000000000000000000000000000000000000000000000000000000000000080F590
:2B06E30002000000000000000000000000000000003C010000000000000000000000000000000000000000000088978E
:2B070E00040000000000000000000000000000000010000000000000000000000000000000000000000000000008FAAA
:2B073900020000000000000000000000000000000010100000000000000000000000000000000000000000000008EC7F
:2B076400020000000000000000000000000000000018100000000000000000000000000000000000000000000088E4D4
:2B078F00000000000000000000000000000000000038000000000000000000000000000000000000000000000000DC2B
:2B07BA00000000000000000000000000000000000000000000000000000000000000000000000000000000000080E7AD
:2B07E50000000000000000000000000000000000008600000000000000000000000000000000000000000000000087DC
:2B081000000000000000000000000000000000000000000000000000000000000000000000000000000000000080E756
:2B083B00120000000000000000000000000000000044000000000000000000000000000000000000000000000080F1CB
:2B086600020000000000000000000000000000000000000000000000000000000000000000000000000000000008ED70
:2B0891000400000000000000000000000000000000A0000000000000000000000000000000000000000000000088C947
:2B08BC00020000000000000000000000000000000040000000000000000000000000000000000000000000000008A91E
:2B08E700020000000000000000000000000000000010000000000000000000000000000000000000000000000008FCD0
:2B091200000000000000000000000000000000000000000000000000000000000000000000000000000000000080E753
:2B093D00000000000000000000000000000000000026040000000000000000000000000000000000000000000080A144
:2B096800000000000000000000000000000000000000000000000000000000000000000000000000000000000080E7FD
:2B099300000000000000000000000000000000000004010000000000000000000000000000000000000000000080A60E
:2B09BE00020000000000000000000000000000000020000000000000000000000000000000000000000000000080C7A5
:2B09E900000000000000000000000000000000000020000000000000000000000000000000000000000000000008CDEE
:2B0A1400000000000000000000000000000000000000000000000000000000000000000000000000000000000008EFC0
:2B0A3F00000000000000000000000000000000000018000000000000000000000000000000000000000000000088F6F6
:2B0A6A00000000000000000000000000000000000000000000000000000000000000000000000000000000000008EF6A
:2B0A9500020000000000000000000000000000000036020000000000000000000000000000000000000000000080B4C8
:2B0AC000000000000000000000000000000000000000020000000000000000000000000000000000000000000080E5A4
:2B0AEB0000000000000000000000000000000000001C000000000000000000000000000000000000000000000000BE06
:2B0B1600000000000000000000000000000000000030000000000000000000000000000000000000000000000080D430
:2B0B4100020000000000000000000000000000000010000000000000000000000000000000000000000000000080F403
:2B0B6C00000000000000000000000000000000000018100000000000000000000000000000000000000000000088E6C8
:2B0B9700000000000000000000000000000000000018000000000000000000000000000000000000000000000088F69D
:2B0BC200000000000000000000000000000000000000010000000000000000000000000000000000000000000008EE11
:2B0BED00000000000000000000000000000000000026000000000000000000000000000000000000000000000008AD02
:2B0C1800020000000000000000000000000000000040000000000000000000000000000000000000000000000080A14E
:2B0C4300000000000000000000000000000000000024000000000000000000000000000000000000000000000080855D
:2B0C6E00000000000000000000000000000000000000000000000000000000000000000000000000000000000080E7F4
:2B0C990000000000000000000000000000000000006000000000000000000000000000000000000000000000008081CF
:2B0CC400000000000000000000000000000000000000000000000000000000000000000000000000000000000008EF0E
:2B0CEF00020000000000000000000000000000000018000000000000000000000000000000000000000000000000FCC4
:2B0D1A00020000000000000000000000000000000000000000000000000000000000000000000000000000000080E547
:2B0D45000200000000000000000000000000000000160200000000000000000000000000000000000000000000809653
:2B0D7000020000000000000000000000000000000000020000000000000000000000000000000000000000000080E7ED
:2B0D9B0000000000000000000000000000000000003C00000000000000000000000000000000000000000000008894D5
:2B0DC600000000000000000000000000000000000010040000000000000000000000000000000000000000000080F27C
:2B0DF100000000000000000000000000000000000030000000000000000000000000000000000000000000000080D453
:2B0E1C00000000000000000000000000000000000018080000000000000000000000000000000000000000000000F695
:2B0E4700000000000000000000000000000000000038000000000000000000000000000000000000000000000000DC6C
:2B0E7200020000000000000000000000000000000000000000000000000000000000000000000000000000000008ED5E
:2B0E9D00020000000000000000000000000000000016040000000000000000000000000000000000000000000008986E
:2B0EC800020000000000000000000000000000000000000000000000000000000000000000000000000000000008ED08
:2B0EF30002000000000000000000000000000000001C080000000000000000000000000000000000000000000088BC6A
:2B0F1E00000000000000000000000000000000000010000000000000000000000000000000000000000000000080F622
:2B0F4900000000000000000000000000000000000030080000000000000000000000000000000000000000000080DCE9
:2B0F7400000000000000000000000000000000000018040000000000000000000000000000000000000000000000FA3C
:2B0F9F001000000000000000000000000000000000180000000000000000000000000000000000000000000000B8D572
:2B0FCA000200000000000000000000000000000000000000000000000000000000000000000000000000000000688B07
:2B0FF500000000000000000000000000000000000000000000000000000000000000000000000000000000000080E76A
:2B102000800008800008800008800008800008800008000000000020000220000220000220000220000220000280E742
:2B104B00800008800008800008800008800008800008000000000020000220000220000220000220000220000280E717
:2B107600000000000000000000000000000000000000000000000000000000000000000000000000000000000080E7E8
:2B10A10000000000000241000000000000000000000000000000000000000000000000000000000000000000008086DB
:2B10CC00000000000000000000000000000000000000000000000000000000000000000000000000000000000080E792
:2B10F700000000000000000000000000000000000000000000000000000000000000000000000000000000000080E767
:2B1122000000000000024100000000000000000000000000000000000000000000000000000000000000000000808659
:2B114D00000000000000000000000000000000000000000000000000000000000000000000000000000000000080E710
:2B117800000000000000000000000000000000000000100000000000000000000000000000000000000000000080F7C5
:2B11A300000000000000000000000000000000000080000000000000000000000000000000000000000000000000E7BA
:2B11CE000000000000000000000000000000000000000D0000000000000000000000000000000000000000000080EA7F
:2B11F900000000000000000000000000000000000000000000000000000000000000000000000000000000000080E764
:2B122400000000000000000000000000000000000000020000000000000000000000000000000000000000000080E538
:2B124F00000000000000000000000000000000000000000000000000000000000000000000000000000000000080E70D
:2B127A00000000000000000000000000000000000000000000000000000000000000000000000000000000000080E7E2
:2B12A500000000000000000000000000000000000004100000000000000000000000000000000000000000000080B7D3
:2B12D000000000000000000000000000000000000000000000000000000000000000000000000000000000000080E78C
:2B12FB00000000000000000000000000000000000000000000000000000000000000000000000000000000000080E761
:2B132600000000000000000000000000000000000000000000000000000000000000000000000000000000000080E735
:2B135100000000000000000000000000000000000000040000000000000000000000000000000000000000000080E30A
:2B137C000000000000000000000000000000000000A0000000000000000000000000000000000000000000000000C5E1
:2B13A700002220020000000000040000000000000010000000000000005004000000000080040000000000008004FB6C
:2B13D200000040000000000000000020000000000000000000000000002000000000000400000000000000000080C725
:2B13FD00004000000000000010010000000000000020020000000000000000000000001000000000000000000080D2F0
:2B142800000000000000000000000000050000000058000000000000000000000000000282400000000000000080FDFB
:2B145300400000000000000000000010000000000000000000000000000100000000000010000000000000001180A6D6
:2B147E00000804020000000000010000000000000000000000000000000000000000000000000000000000000400E050
:2B14A900000000000000000008100000000000000000000000000000008000000000000000000000000000000000F789
:2B14D400000000000000000000000000000000000000000000000000000500000000001000000000000000000180A2B5
:2B14FF000000100800000000000000A0000000000000040000000000000400000000000000210000000000004000B9E8
:2B152A00000000040000000080000008000000000000000000000000001001000000000020000000000000000082F85F
:2B155500121888000000000040000000000000000000000000000000002000000000000000020000000000000819B185
:2B158000080010000000000000040000000000000000000000000000000000000000000010000000000000000800EB21
:2B15AB00800101110020000200000000000000000004000000000000000200000000000060000000000000000200D91F
:2B15D600000080110010000100000000000000000000000000000000000000000000000000080000000000000000FE42
:2B160100000A026090E04094C65314E10A1602081E650C000000000041080402010AE0080282201020401002A080EDD2
:2B162C0000020A20202800040A000420000402800405000000000040010800000128808000800010000010000080E1EB
:2B165700024000000100000100044001000000000000000000000000000000000000000000000000000000000008F9DE
:2B168200020800000080000080001080081200080A400C0000000040400004020002200002022000204000022088E76E
:2B16AD00020000C0F140C0F15CD74040000000803020000000000000000000000020500800000000000000000008F07B
:2B16D800020000000000000000000000000000000000000000000000000000000000000000000000000000000008EDF0
:2B170300000000000000000000000000000000000000000000000000000000000000000000000000000000000080E754
:2B172E00800008800008800008800008800008800008000000000020000220000220000220000220000220000280E72D
:2B175900800008800008800008800008800008800008000000000020000220000220000220000220000220000280E702
:2B178400000000000038801100000000100000000000000000000000000000000000000000000000000000000080D40D
:2B17AF0062080000001EE001160800160000000000360400000000000000000000008045000000000000000000808370
:2B17DA00000000000018800100010000000000000020000000000000000000000000008000000000000000000008C4DE
:2B180500400400000014D0211C00003C04000000003C000000000000000000000000000F00000000000000000088DB65
:2B1830000008000000188001100400300000000000100200000000000000000000000044000000000000000000889A30
:2B185B00000000000018820131000030000000000010000000000000000000000000000C00000000000000000088A81A
:2B188600020400000018810238000018000000000018020000000000000000000000004600000000000000000000C81E
:2B18B100000100000018800118000018010000000038000000000000000000000000000600000000000000000000AA59
:2B18DC00000000010038001100000000100000000000000000000000004000000000000000080000000000000000D16E
:2B19070000003600001EE00116080016000000000036040000000000800D000000008045D8000000000000802180A91E
:2B193200000000000010800100010000000000000020000000000000000800000000008000200000000000000080E4CC
:2B195D0002001C10001CD0211C00003C04000000003C000000000000000F00000000000F700000000000000011088C59
:2B198800020010020018800110000010000000000010000000000000000400000000000440000000000000002008A93E
:2B19B300020030000018820111020010020000000030010000000000008C00000000004CC0080000000000000088BE00
:2B19DE00020018000018810318000018000000000018000000000000000600000000000660000000000000001008A9B3
:2B1A0900000018010018800118040038020000000018040000000000000E040000000006E4200000000000000480C42A
:2B1A3400001000000038801100000000100000000000000000000000000000000000000080000000000000004000D10D
:2B1A5F0060032610001EE00116080016000000000036040000000000800102000000804598000000000000800D809DCC
:2B1A8A000000000100180001000100000000000000200000000000000000040000000080000000000000000008808565
:2B1AB500C0010500001CD0211C00003C04000000003C000000000000000100000000000F10400000000000000F80E1CB
:2B1AE00002010100001080011004001001000000001000000000000000000200000000040040000000000000048890AF
:2B1B0B00020320080018820111000030000000000030080000000000000800000000000481000000000000000409FFD5
:2B1B360082010000001881031802003800000000001800000000000000000000000000060400000000000000060A8E53
:2B1B6100822318000018800138000018000000000018100000000000000600000000000E60000000000000000608E623
:2B1B8C00000081000038801100000000100000000000000000000000000000000000000000000000000000000000C410
:2B1BB70060000600001EE00016080016000000000036040000000000804D000000008045D8040000000000800904A98D
:2B1BE200000000000018800100010000000000000020000000000000000001000000008000000000000000000080DC41
:2B1C0D0040024500001CD0211C00003C04000000003C000000000000000700000000000F7020000000000000890090C1
:2B1C380000000000001880011000001004000000001000000000000000840000000000044210000000000000000CC608
:2B1C63000240A0000018820131010010000000000010020000000000000C000000000004C0000000000000000000A510
:2B1C8E00020040000018810318000018000000000018080000000000000601000000000661080000000000000000FD8A
:2B1CB900820110000010800138020018080000000018000000000000000E00000000000660000000000000000680D49C
:2B1CE400020000000038801100000000100000000000000000000000002000000000000000020000000000000080D682
:2B1D0F0060131604001EE00116080016000000000036040000000000800100000000804518000000000000804D889765
:2B1D3A00004020000018800100010000000000000020000000000000000000000000008000000000000000000081FA69
:2B1D6500C0011C00001CD0211C00003C04000000003C000000000000001100000000000F10010000000000000780A871
:2B1D9000000110040018000110010010000000000010040000000000000000000000000401000000000000000400EFCD
:2B1DBB00008310000018820131000030100000000030000000000000002800000000000C80020000000000004488F0BC
:2B1DE600824118000008810318080018000000000018000000000000000000000000000600000000000000000601D23C
:2B1E1100820338010018800118000038080000000038020000000000002400000000008E40020000000000000E00FFBC
:2B1E3C00028000080038800300000000100000000000000000000000000004000000000000100000000000008080AD65
:2B1E670062002600001EE00116080016000000000036040000000000800900000000804518000000000000800100D89C
:2B1E9200000440000018800000010000000000000020000000000000001000000000008000010000000000001008D4AB
:2B1EBD0040022400001CD0011D00003C04000000003C000000000000000900000000000F90000000000000000900DC81
:2B1EE800000000000008800110080010020000000010010000000000000000000000000400000000000000000080A8DF
:2B1F130000066000001882213000001000000000003000000000000000180000000000048201000000000000180093C8
:2B1F3E000200000000188111180000180000000000180100000000000000000000000006000000000000000000009BE2
:2B1F6900800118000018800138040038010000000018000000000000000600000000000E61000000000000000608E328
:2B1F9400000000000018810300000000100000000000000000000000000000000000000000000000000000000008DC92
:2B1FBF0060433604001EE00116080016000000000036040000000000800D010000008045D8100000000000808508BCA9
:2B1FEA00000220000018800100010000000000000020000000000000000800000000008080000000000000000888C494
:2B201500C2013C00001CC2011D00003C04000000003C000000000000000700000000000F700000000000000007808894
:2B204000001110040018800110000010040000000010040000000000000400000000000442040000000000004480D39A
:2B206B00000130000018102110100030000000000010000000000000008400000000000CC0000000000000000400F428
:2B2096008081180800388011180200180800000000180000000000000006000000000086604000000000000006009F12
:2B20C100800318000008800118000018000000000018080000000000004600000000000660000000000000000E0AE9D3
:2B20EC00020000000018810300000000100000000000000000000000000000000000000000000000000000000080D6C5
:2B21170062211602001EE00116080016000000000036040000000000800504000000804558080000000000800584B628
:2B214200020000000018800100010000000000000020000000000000000000000000008000000000000000000080CEE8
:2B216D00C2811C08001CC2001D00003C04000000003C000000000000000701000000000F701000000000000007829BAE
:2B219800002110100018800110000010080000000010000000000000004400000000000440000000000000000408E096
:2B21C300000110000018902130080030000000000010010000000000000400000000000C44040000000000000C81B900
:2B21EE00800118100030801118000018100000000038000000000000000602000000000E6000000000000000060497CD
:2B221900841138000018800118010038000000000018000000000000000600000000000EE0400000000000000EE0DCCD
:2B224400120000000000000000000000000000000000000000000000000000000000000000000000000000000090E4E9
:2B226F00000000000000000000000000000000000000000000000000000000000000000000000000000000000080E7DD
:2B229A00800008800008800008800008800008800008000000000020000220000220000220000220000220000280E7B6
:2B22C500800008800008800008800008800008800008000000000020000220000220000220000220000220000280E78B
:2B22F00000000000758580733C0F00441000000030401000000000000000000000C0502000000000000000000080F80F
:2B231B00008200000000100000000000000000000001000000000000000000000000000000000000000000000080CDB7
:2B234600000440080202004440200002200004000402000000000000800001800000000008100008000808800000EDAE
:2B2371000010000000088A0800000800020840108088000000000000202000024000200202040002202000024000BC43
:2B239C00009640081687181E642908463008441094C3100000000000A0200082408060200A04000A202808824000ECFF
:2B23C700000000000004500021000000000000000008000000000000000000000000002000000000000000000000CF7F
:2B23F200800008080000000010000000000000000000000000000000000200000000000000030000000000000280FD9C
:2B241D00008000000000000000000004000000000000100000000000000000000000000400000000000000000080FB81
:2B244800008000000000000000000004120000000000000000000000000000000000000000000000000000000080BD96
:2B247300000000000000000004000008080000000000000000000000000800000000000000100000000000002080B5BD
:2B249E0000420100000000004800000000000000000003000000000000000000000000080100000000000000A084C494
:2B24C9000004000000000000800000000000000000000000000000000000020000000000004800000000000004008F87
:2B24F400001000000000000000000080000000000000000000000000004004000000000000000000000000004000A603
:2B251F00000000000000000000000000060000000040000000000000000000000000000000000000000000000080A526
:2B254A00002000000000000020000000000000000004000000000000000000000000000000040000000000000080831B
:2B257500000004000000000000020000000000000080010000000000000000000000000206000000000000000000E6C6
:2B25A000000100000000000000020000080000000020000000000000008000000000006100200000000000000080E183
:2B25CB0000000004000000000000004000000000000000000000000000000000000000C0000000000000000000828BD4
:2B25F600000000000000000000000000000000000080000000000000000002000000008000000000000000000000CFE9
:2B262100000000000000000000000000000000000000000000000000000000000000000000000000000000000080E727
:2B264C00000000000000000000000000000000000000000000000000000000000000000000000000000000000080E7FC
:2B267700000000000000000000000000000000000000000000000000000000000000000000000000000000000080E7D1
:2B26A200000000000000000000000000000000000000000000000000000000000000000000000000000000000080E7A6
:2B26CD00000000000000000000000000000000000000000000000000000000000000000000000000000000000080E77B
:2B26F800000000000000000000000000000000000000000000000000000000000000000000000000000000000080E750
:2B272300000000000000000000000000000000000000000000000000000000000000000000000000000000000080E724
:2B274E00000000000000000000000000000000000000000000000000000000000000000000000000000000000080E7F9
:2B277900000000000000000000000000000000000000000000000000000000000000000000000000000000000080E7CE
:2B27A400000000000000000000000000000000000000000000000000000000000000000000000000000000000080E7A3
:2B27CF00120000000000000000000000000000000000000000000000000000000000000000000000000000000080F558
:2B27FA00180000000000000000000000000000000000000000000000000000000000000000000000000000000080FF1D
:2B282500000000000000000000000000000000000000000000000000000000000000000000000000000000000080E721
:2B285000000000000000000000000000000000000000000000000000000000000000000000000000000000000080E7F6
:2B287B00000000000000000000000000000000000000000000000000000000000000000000000000000000000080E7CB
:2B28A600000000000000000000000000040100000110000000000000000000000000000000000000000000000008FAEF
:2B28D100020000000000000000000000000000000000000000000000000000000000000000000000000000000080E575
:2B28FC00020000000000000000000000040100000110000000000000000000000000000000000000000000000080F029
:2B292700020000000000000000000000000000000000000000000000000000000000000000000000000000000080E51E
:2B295200020000000000000000000000000000000000000000000000000000000000000000000000000000000080E5F3
:2B297D00000000000000000000000000000000000000000000000000000000000000000000000000000000000008EF38
:2B29A800800008800008800008800008800008800008000000000020000220000220000220000220000220000280E7A1
:2B29D300800008800008800008800008800008800008000000000020000220000220000220000220000220000280E776
:2B29FE00000000000000000000000000000000000000000000000000000000000000000000000000000000000080E747
:2B2A2900020000000000000000000000000000000000000000000000000000000000000000000000000000000080E51B
:2B2A5400000000000000000000000000000000000000000000000000000000000000000000000000000000000008EF60
:2B2A7F00000000000000000000000000000000000000000000000000000000000000000000000000000000000008EF35
:2B2AAA00000000000000000000000000000000000000000000000000000000000000000000000000000000000008EF0A
:2B2AD500000000000000000000000000000000000000000000000000000000000000000000000000000000000008EFDF
:2B2B0000020000000000000000000000000000000000000000000000000000000000000000000000000000000080E543
:2B2B2B00000000000000000000000000000000000000000000000000000000000000000000000000000000000080E718
:2B2B5600000000000000000000000000000000000000000000000000000000000000000000000000000000000080E7ED
:2B2B8100000000000000000000000000000000000000000000000000000000000000000000000000000000000080E7C2
:2B2BAC00000000000000000000000000000000000000000000000000000000000000000000000000000000000008EF07
:2B2BD700020000000000000000000000000000000000000000000000000000000000000000000000000000000080E56C
:2B2C0200020000000000000000000000000000000000000000000000000000000000000000000000000000000080E540
:2B2C2D00020000000000000000000000000000000000000000000000000000000000000000000000000000000080E515
:2B2C5800020000000000000000000000000000000000000000000000000000000000000000000000000000000080E5EA
:2B2C8300000000000000000000000000000000000000000000000000000000000000000000000000000000000008EF2F
:2B2CAE00000000000000000000000000000000000000000000000000000000000000000000000000000000000080E794
:2B2CD900000000000000000000000000000000000000000000000000000000000000000000000000000000000080E769
:2B2D0400000000000000000000000000000000000000000000000000000000000000000000000000000000000080E73D
:2B2D2F00000000000000000000000000000000000000000000000000000000000000000000000000000000000008EF82
:2B2D5A00020000000000000000000000000000000000000000000000000000000000000000000000000000000080E5E7
:2B2D8500020000000000000000000000000000000000000000000000000000000000000000000000000000000080E5BC
:2B2DB000020000000000000000000000000000000000000000000000000000000000000000000000000000000080E591
:2B2DDB00020000000000000000000000000000000000000000000000000000000000000000000000000000000080E566
:2B2E0600000000000000000000000000000000000000000000000000000000000000000000000000000000000008EFAA
:2B2E3100000000000000000000000000000000000000000000000000000000000000000000000000000000000080E70F
:2B2E5C00000000000000000000000000000000000000000000000000000000000000000000000000000000000080E7E4
:2B2E8700000000000000000000000000000000000000000000000000000000000000000000000000000000000080E7B9
:2B2EB200000000000000000000000000000000000000000000000000000000000000000000000000000000000048AB02
:2B2EDD00020000000000000000000000000000000000000000000000000000000000000000000000000000000008EDD3
:2B2F0800020000000000000000000000000000000000000000000000000000000000000000000000000000000090F418
:2B2F3300020000000000000000000000000000000000000000000000000000000000000000000000000000000008ED7C
:2B2F5E00020000000000000000000000000000000000000000000000000000000000000000000000000000000008ED51
:2B2F8900000000000000000000000000000000000000000000000000000000000000000000000000000000000080E7B6
:2B2FB400000000000000000000000000000000000000000000000000000000000000000000000000000000000080E78B
:2B2FDF00000000000000000000000000000000000000000000000000000000000000000000000000000000000080E760
:2B300A00000000000000000000000000000000000000000000000000000000000000000000000000000000000080E734
:2B303500000000000000000000000000000000000000000000000000000000000000000000000000000000000008EF79
:2B306000020000000000000000000000000000000000000000000000000000000000000000000000000000000080E5DE
:2B308B00020000000000000000000000000000000000000000000000000000000000000000000000000000000080E5B3
:2B30B600020000000000000000000000000000000000000000000000000000000000000000000000000000000080E588
:2B30E100020000000000000000000000000000000000000000000000000000000000000000000000000000000080E55D
:2B310C00000000000000000000000000000000000000000000000000000000000000000000000000000000000008EFA1
:2B313700000000000000000000000000000000000000000000000000000000000000000000000000000000000080E706
:2B316200000000000000000000000000000000000000000000000000000000000000000000000000000000000080E7DB
:2B318D00000000000000000000000000000000000000000000000000000000000000000000000000000000000080E7B0
:2B31B800020000000000000000000000000000000000000000000000000000000000000000000000000000000008EDF5
:2B31E300000000000000000000000000000000000000000000000000000000000000000000000000000000000080E75A
:2B320E00000000000000000000000000000000000000000000000000000000000000000000000000000000000080E72E
:2B323900000000000000000000000000000000000000000000000000000000000000000000000000000000000080E703
:2B326400000000000000000000000000000000000000000000000000000000000000000000000000000000000080E7D8
:2B328F00020000000000000000000000000000000000000000000000000000000000000000000000000000000008ED1D
:2B32BA00000000000000000000000000000000000000000000000000000000000000000000000000000000000080E782
:2B32E500000000000000000000000000000000000000000000000000000000000000000000000000000000000080E757
:2B331000000000000000000000000000000000000000000000000000000000000000000000000000000000000080E72B
:2B333B00000000000000000000000000000000000000000000000000000000000000000000000000000000000008EF70
:2B33660002000000000000000000000000000000000000000000000000006000000000000000000000000000008083D7
:2B3391000200000000000000000000000000000000000000000000000000780000000000000000000000000000009AFD
:2B33BC000200000000000000000000000000000000000000000000000000600000000000000000000000000000808381
:2B33E7000200000000000000000000000000000000000000000000000000700000000000000000000000000000809237
:2B341200000000000000000000000000000000000000000000000000000060000000000000000000000000000008899E
:2B343D000000000000000000000000000000000000000000000000000000600000000000000000000000000000808103
:2B34680000000000000000000000000000000000000000000000000000006000000000000000000000000000008081D8
:2B3493000400000000000000000000000000000000000000000000000000600000000000000000000000000000A0A763
:2B34BE00020000000000000000000000000000000000000000000000000000000000000000000000000000000080E57C
:2B34E900000000000000000000000000000000000000000000000000000000000000000000000000000000000080E751
:2B351400800008800008800008800008800008800008000000000020000220000220000220000220000220000280E729
:2B353F00800008800008800008800008800008800008000000000020000220000220000220000220000220000280E7FE
:2B356A00000000000000000000000000000000000000000000000000000010000000000000000000000000000080F6B0
:2B359500000100000000040000000000000000004000000000000000000000000000000000200000000000000080D650
:2B35C000000000000000000000000000000000000000000000000000000000000000000000000000000000000080E779
:2B35EB00000100000000040000000000000000004000000000000000000000000000000000000000000000000080F6FA
:2B361600000000000000000000000000000000000000000000000000000010000000000000200000000000000080D603
:2B364100000000000000000000000000000000000000000000000000000000000000000000000000000000000080E7F7
:2B366C00020000000000000000000000000000000000000000000000000000000000000000000000000000000008ED3C
:2B3697001000000000000000000000000000000000000000000000000000000000000000000000000000000000C0B385
:2B36C200000000000000000000000000000000000000000000000000000000000000000000000000000000000080E776
:2B36ED00000000000000000000000000000000000000000000000000000000000000000000000000000000000080E74B
:2B371800000000000000000000000000000000000000000000000000000000000000000000000000000000000080E71F
:2B374300000000000000000000000000000000000000000000000000000000000000000000000000000000000080E7F4
:2B376E00000000000000000000000000000000000000000000000000000000000000000000000000000000000080E7C9
:2B3799000000000000000000000000000000000000000000000000000000000000000000000000000000000000C0A3A2
:2B37C400000000000000000000000000000000000000000000000000000000000000000000000000000000000080E773
:2B37EF00000000000000000000000000000000000000000000000000000000000000000000000000000000000080E748
:2B381A00000000000000000000000000000000000000000000000000000000000000000000000000000000000080E71C
:2B384500000000000000000000000000000000000000000000000000000000000000000000000000000000000080E7F1
:2B387000000000000000000000000000000000000000000000000000000000000000000000000000000000000080E7C6
:2B389B00000000000000000000000000010000000000000000000000000000000000000000000000000000000080E69B
:2B38C600000000000000000000000000000000000000000000000000000000000000000000000000000000000080E770
:2B38F100000000000000000000000000080000000000000000000000000000000000000000000000000000000080EF35
:2B391C00000000000000000000000004000000000000000000000000000000000000000000000000000000000080A755
:2B394700000000000000000000000000000000000000000000000000000000000000000000000000000000000080E7EE
:2B397200000000000000000000000000000000000000000000000000000000000000000000000000000000000080E7C3
:2B399D00000000000000000000000000000000000000000000000000000000000000000000000000000000000080E798
:2B39C800000000000000000000000000000000000000000000000000000000000000000000000000000000000080E76D
:2B39F300000000000000000000000020040000000000000000000000000000000000000000000000000000000080C144
:2B3A1E00000000000000000000000040000000000000000000000000000000000000000000000000000000000080A31A
:2B3A4900000000000000000000000000000000000000000000000000000000000000000000000000000000000080E7EB
:2B3A7400000000000000000000000000000000000000000000000000000000000000000000000000000000000080E7C0
:2B3A9F00000000000000000000000008000000000000000000000000000000000000000000000000000000000000EF05
:2B3ACA00000000000000000000000000000000000000000000000000000000000000000000000000000000000080E76A
:2B3AF500000000000A02000084108000000000000000000000000000000000000000000000000000000000000080BD49
:2B3B2000020000000000000080000000000000000000000000000000000000000000000000000000000000000088ED83
:2B3B4B00000000000000000000000000000000000000000000000000000000000000000000000000000000000080E7E8
:2B3B7600000000000A02000004108000000000000000000000000000000000000000000000000000000000000000BDC7
:2B3BA100000000000000000000000000000000000000000000000000000000000000000000000000000000000080E792
:2B3BCC00000000000000000000000000000000000000000000000000000000000000000000000000000000000080E767
:2B3BF700020000000000000000000000000000000000000000000000000000000000000000000000000000000008EDAC
:2B3C2200800008800008800008800008800008800008000000000020000220000220000220000220000220000280E714
:2B3C4D00800008800008800008800008800008800008000000000020000220000220000220000220000220000280E7E9
:2B3C7800000000000000000000000000000000000000000000000000000000000000000000000000000000000080E7BA
:2B3CA300020000000000000000000000000000000000000000000000000000000000000000000000000000000080E58F
:2B3CCE00000000000000000000000000000000000000000000000000000000000000000000000000000000000008EFD4
:2B3CF900000000000000000000000000000000000000000000000000000000000000000000000000000000000008EFA9
:2B3D2400000000000000000000000000000000000000000000000000000000000000000000000000000000000008EF7D
:2B3D4F00000000000000000000000000000000000000000000000000000000000000000000000000000000000008EF52
:2B3D7A00020000000000000000000000000000000000000000000000000000000000000000000000000000000080E5B7
:2B3DA500000000000000000000000000000000000000000000000000000000000000000000000000000000000080E78C
:2B3DD000000000000000000000000000080000000000000000000000000000000000000000000000000000000080EF51
:2B3DFB000000000000000000000000160000000000000000000000000000000000000000000000000000000000809671
:2B3E2600020000000000000000000000000000000000000000000000000000000000000000000000000000000080E50A
:2B3E510000000000000000000000003C0800000000000000000000000000000000000000000000000000000000889CDE
:2B3E7C00000000000000000000000010010000000000000000000000000000000000000000000000000000000008FF03
:2B3EA700000000000000000000000030000000000000000000000000000000000000000000000000000000000008DCDC
:2B3ED200000000000000000000000018000000000000000000000000000000000000000000000000000000000088F62F
:2B3EFD00020000000000000000000018010000000000000000000000000000000000000000000000000000000000FD82
:2B3F2800000000000000000000000000010000000000000000000000000000000000000000000000000000000080E607
:2B3F53000000000000000000000000060000000000000000000000000000000000000000000000000000000000808736
:2B3F7E00000000000000000000000020000000000000000000000000000000000000000000000000000000000080C5B3
:2B3FA90000000000000000000000002400000000000000000000000000000000000000000000000000000000008085C4
:2B3FD400020000000000000000000000020000000000000000000000000000000000000000000000000000000008EFC7
:2B3FFF00020000000000000000000000000000000000000000000000000000000000000000000000000000000008EDA0
:2B402A00020000000000000000000000000000000000000000000000000000000000000000000000000000000008ED74
:2B405500020000000000000000000018000000000000000000000000000000000000000000000000000000000088F4AA
:2B408000000000000000000000000000000000000000000000000000000000000000000000000000000000000080E7AE
:2B40AB00000000000000000000000036010000000000000000000000000000000000000000000000000000000080B57E
:2B40D600000000000000000000000020000000000000000000000000000000000000000000000000000000000080C55A
:2B41010000000000000000000000001C000000000000000000000000000000000000000000000000000000000000BEB9
:2B412C00020000000000000000000010080000000000000000000000000000000000000000000000000000000080FCD2
:2B415700000000000000000000000030000000000000000000000000000000000000000000000000000000000008DC29
:2B418200000000000000000000000018040000000000000000000000000000000000000000000000000000000088F27C
:2B41AD00000000000000000000000018000000000000000000000000000000000000000000000000000000000088F651
:2B41D800000000000000000000000000040000000000000000000000000000000000000000000000000000000008EBC5
:2B420300020000000000000000000026000000000000000000000000000000000000000000000000000000000080A741
:2B422E00000000000000000000000000000000000000000000000000000000000000000000000000000000000080E7FE
:2B425900000000000000000000000044000000000000000000000000000000000000000000000000000000000080E393
:2B428400000000000000000000000000000000000000000000000000000000000000000000000000000000000080E7A8
:2B42AF000000000000000000000000600000000000000000000000000000000000000000000000000000000000808183
:2B42DA00020000000000000000000000000000000000000000000000000000000000000000000000000000000008EDC2
:2B430500020000000000000000000018000000000000000000000000000000000000000000000000000000000088F4F7
:2B433000020000000000000000000000000000000000000000000000000000000000000000000000000000000008ED6B
:2B435B00020000000000000000000036100000000000000000000000000000000000000000000000000000000008AE39
:2B438600000000000000000000000000020000000000000000000000000000000000000000000000000000000080E5A5
:2B43B10000000000000000000000003C0000000000000000000000000000000000000000000000000000000000009C09
:2B43DC00000000000000000000000010100000000000000000000000000000000000000000000000000000000080E630
:2B440700000000000000000000000010000000000000000000000000000000000000000000000000000000000080F604
:2B443200120000000000000000000018100000000000000000000000000000000000000000000000000000000088F4A9
:2B445D00020000000000000000000038000000000000000000000000000000000000000000000000000000000000DE1C
:2B448800040000000000000000000080000000000000000000000000000000000000000000000000000000000000E3A2
:2B44B30002000000000000000000000600000000000000000000000000000000000000000000000000000000008085D1
:2B44DE00020000000000000000000040000000000000000000000000000000000000000000000000000000000080A150
:2B450900000000000000000000000004000000000000000000000000000000000000000000000000000000000008AFCC
:2B453400000000000000000000000000000000000000000000000000000000000000000000000000000000000080E7F5
:2B455F000000000000000000000000A0000000000000000000000000000000000000000000000000000000000000C5CC
:2B458A00000000000000000000000000000000000000000000000000000000000000000000000000000000000080E79F
:2B45B500000000000000000000000090000000000000000000000000000000000000000000000000000000000000F655
:2B45E000020000000000000000000000000000000000000000000000000000000000000000000000000000000008EDB9
:2B460B000200000000000000000000160200000000000000000000000000000000000000000000000000000000089EC4
:2B463600020000000000000000000000000000000000000000000000000000000000000000000000000000000008ED62
:2B46610002000000000000000000001C040000000000000000000000000000000000000000000000000000000088B0D4
:2B468C00000000000000000000000010000000000000000000000000000000000000000000000000000000000080F67D
:2B46B700000000000000000000000030040000000000000000000000000000000000000000000000000000000080D054
:2B46E200000000000000000000000018000000000000000000000000000000000000000000000000000000000000FE97
:2B470D000200000000000000000000181000000000000000000000000000000000000000000000000000000000B8D7C8
:2B4738000A00000000000000000000000000000000000000000000000000000000000000000000000000000000688361
:2B476300000000000000000000000000000000000000000000000000000000000000000000000000000000000080E7C4
:2B478E00800008800008800008800008800008800008000000000020000220000220000220000220000220000280E79D
:2B47B900800008800008800008800008800008800008000000000020000220000220000220000220000220000280E772
:2B47E400000000000000000000000020000000000000000000000000000000000000000000000000000000000080C545
:2B480F000000000400820000010000000000000000040000000000000000000000000001000000000000000000008270
:2B483A00000000000000000000000000000000000000000000000000000000000000000000000000000000000080E7EC
:2B486500000000040000000000000000000000000000000000000000000000000000000000000000000000000080E3C1
:2B489000000000000082000001000020000000000004000000000000000000000000000100000000000000000000A4B1
:2B48BB00000000000000000000000000000000000000000000000000000000000000000000000000000000000080E76B
:2B48E600000000000000000000000028100000000000000000000000000000000000000000000000000000000000DD92
:2B491100000000000000000000000000000000000000000000000000000000000000000000000000000000000080E714
:2B493C000000000000000000000000800D0000000000000000000000000000000000000000000000000000000000EAD9
:2B496700000000000000000000000000000000000000000000000000000000000000000000000000000000000080E7BE
:2B499200000000000000000000000000020000000000000000000000000000000000000000000000000000000080E593
:2B49BD00000000000000000000000000000000000000000000000000000000000000000000000000000000000080E768
:2B49E800000000000000000000000000000000000000000000000000000000000000000000000000000000000080E73D
:2B4A1300000000000000000000000010100000000000000000000000000000000000000000000000000000000080E6F2
:2B4A3E00000000000000000000000000000000000000000000000000000000000000000000000000000000000080E7E6
:2B4A6900000000000000000000000004000000000000000000000000000000000000000000000000000000000080A7F7
:2B4A9400040000000000000000000000000000000000000000000000000000000000000000000000000000000080E390
:2B4ABF00000000000000000000000080000000000000000000000000000000000000000000000000000000000000E765
:2B4AEA00000000000000000000000010000000000000000000000000000000000000000000000000000000000080F61B
:2B4B1500100000000000000000000000000000000000000000000000000000000000000000000000000000000080F7EE
:2B4B4000000000000000000000000000000000000000000000000000000000000000000000000000000000000080E7E3
:2B4B6B00000000000000000000000000000000000000000000000000000000000000000000000000000000000080E7B8
:2B4B9600000000000000000000000000000000000000000000000000000000000000000000000000000000000080E78D
:2B4BC1000000000000000000000000000000000000000000000000000000000000000000000000000000000000A0C564
:2B4BEC00000000000000000000000000000000000000000000000000000000000000000000000000000000000080E737
:2B4C1700000000000000000000000000000000000000000000000000000000000000000000000000000000000080E70B
:2B4C4200000000000000000000000000000000000000000000000000000000000000000000000000000000000080E7E0
:2B4C6D00000000000000000000000000000000000000000000000000000000000000000000000000000000000080E7B5
:2B4C98000000000000000000000000000000000000000000000000000000000000000000000000000000000000A0C58C
:2B4CC300080000000000000000000000000000000000000000000000000000000000000000000000000000000080EF4F
:2B4CEE00120000000000000000000000000000000000000000000000000000000000000000000000000000000080F514
:2B4D1900000000000000000000000000000000000000000000000000000000000000000000000000000000000080E708
:2B4D4400000000000000000000000000000000000000000000000000000000000000000000000000000000000080E7DD
:2B4D6F00008000000000000000000000000000000000000000000000000000000000000000000000000000002080ED0C
:2B4D9A00120000000000000000000010000100004000000000000000000000000000000000000000000000002008FB68
:2B4DC500020000000000000000000000000000000000000000000000000000000000000000000000000000000080E55C
:2B4DF000048000000000000000000010000100004000000000000000000000000000000000000000000000000080EF54
:2B4E1B00020000000000000000000000000000000000000000000000000000000000000000000000000000000080E505
:2B4E4600020000000000000000000000000000000000000000000000000000000000000000000000000000000080E5DA
:2B4E7100000000000000000000000000000000000000000000000000000000000000000000000000000000000008EF1F
:2B4E9C00800008800008800008800008800008800008000000000020000220000220000220000220000220000280E788
:2B4EC700800008800008800008800008800008800008000000000020000220000220000220000220000220000280E75D
:2B4EF200000000000000000000000000000000000000000000000000000000000000000000000000000000000080E72E
:2B4F1D00000000000000000000000000000000000000000000000000000000000000000000000000000000000048AB76
:2B4F4800020000000000000000000000000000000000000000000000000000000000000000000000000000000008ED47
:2B4F7300020000000000000000000000000000000000000000000000000000000000000000000000000000000090F48D
:2B4F9E00020000000000000000000000000000000000000000000000000000000000000000000000000000000008EDF1
:2B4FC900020000000000000000000000000000000000000000000000000000000000000000000000000000000008EDC6
:2B4FF400000000000000000000000000000000000000000000000000000000000000000000000000000000000080E72B
:2B501F00000000000000000000000000000000000000000000000000000000000000000000000000000000000080E7FF
:2B504A00000000000000000000000000000000000000000000000000000000000000000000000000000000000080E7D4
:2B507500000000000000000000000000000000000000000000000000000000000000000000000000000000000080E7A9
:2B50A000020000000000000000000000000000000000000000000000000000000000000000000000000000000080E57E
:2B50CB00000000000000000000000000000000000000000000000000000000000000000000000000000000000008EFC3
:2B50F600000000000000000000000000000000000000000000000000000000000000000000000000000000000008EF98
:2B512100000000000000000000000000000000000000000000000000000000000000000000000000000000000008EF6C
:2B514C00000000000000000000000000000000000000000000000000000000000000000000000000000000000008EF41
:2B517700020000000000000000000000000000000000000000000000000000000000000000000000000000000080E5A6
:2B51A200000000000000000000000000000000000000000000000000000000000000000000000000000000000080E77B
:2B51CD00000000000000000000000000000000000000000000000000000000000000000000000000000000000080E750
:2B51F800000000000000000000000000000000000000000000000000000000000000000000000000000000000080E725
:2B522300020000000000000000000000000000000000000000000000000000000000000000000000000000000080E5F9
:2B524E00000000000000000000000000000000000000000000000000000000000000000000000000000000000008EF3E
:2B527900000000000000000000000000000000000000000000000000000000000000000000000000000000000008EF13
:2B52A400000000000000000000000000000000000000000000000000000000000000000000000000000000000008EFE8
:2B52CF00000000000000000000000000000000000000000000000000000000000000000000000000000000000008EFBD
:2B52FA00020000000000000000000000000000000000000000000000000000000000000000000000000000000080E522
:2B532500000000000000000000000000000000000000000000000000000000000000000000000000000000000080E7F6
:2B535000000000000000000000000000000000000000000000000000000000000000000000000000000000000080E7CB
:2B537B00000000000000000000000000000000000000000000000000000000000000000000000000000000000080E7A0
:2B53A600000000000000000000000000000000000000000000000000000000000000000000000000000000000048ABE9
:2B53D100020000000000000000000000000000000000000000000000000000000000000000000000000000000008EDBA
:2B53FC00020000000000000000000000000000000000000000000000000000000000000000000000000000000090F400
:2B542700020000000000000000000000000000000000000000000000000000000000000000000000000000000008ED63
:2B545200020000000000000000000000000000000000000000000000000000000000000000000000000000000008ED38
:2B547D00000000000000000000000000000000000000000000000000000000000000000000000000000000000080E79D
:2B54A800000000000000000000000000000000000000000000000000000000000000000000000000000000000080E772
:2B54D300000000000000000000000000000000000000000000000000000000000000000000000000000000000080E747
:2B54FE00000000000000000000000000000000000000000000000000000000000000000000000000000000000080E71C
:2B552900020000000000000000000000000000000000000000000000000000000000000000000000000000000008ED60
:2B555400000000000000000000000000000000000000000000000000000000000000000000000000000000000080E7C5
:2B557F00000000000000000000000000000000000000000000000000000000000000000000000000000000000080E79A
:2B55AA00000000000000000000000000000000000000000000000000000000000000000000000000000000000080E76F
:2B55D500000000000000000000000000000000000000000000000000000000000000000000000000000000000080E744
:2B560000020000000000000000000000000000000000000000000000000000000000000000000000000000000008ED88
:2B562B00000000000000000000000000000000000000000000000000000000000000000000000000000000000080E7ED
:2B565600000000000000000000000000000000000000000000000000000000000000000000000000000000000080E7C2
:2B568100000000000000000000000000000000000000000000000000000000000000000000000000000000000080E797
:2B56AC00020000000000000000000000000000000000000000000000000000000000000000000000000000000008EDDC
:2B56D700000000000000000000000000000000000000000000000000000000000000000000000000000000000080E741
:2B570200000000000000000000000000000000000000000000000000000000000000000000000000000000000080E715
:2B572D00000000000000000000000000000000000000000000000000000000000000000000000000000000000080E7EA
:2B575800000000000000000000000000000000000000000000000000000000000000000000000000000000000080E7BF
:2B578300020000000000000000000000000000000000000000000000000000000000000000000000000000000008ED04
:2B57AE00000000000000000000000000000000000000000000000000000000000000000000000000000000000080E769
:2B57D900000000000000000000000000000000000000000000000000000000000000000000000000000000000080E73E
:2B580400000000000000000000000000000000000000000000000000000000000000000000000000000000000080E712
:2B582F00000000000000000000000000000000000000000000000000000000000000000000000000000000000008EF57
:2B585A00020000000000000000000000000000000000000000000000000000000000000000000000000000000080E5BC
:2B588500020000000000000000000000000000000000000000000000000000000000000000000000000000000080E591
:2B58B000020000000000000000000000000000000000000000000000000000000000000000000000000000000080E566
:2B58DB00020000000000000000000000000000000000000000000000000000000000000000000000000000000080E53B
:2B590600000000000000000000000000000000000000000000000000000000000000000000000000000000000008EF7F
:2B593100000000000000000000000000000000000000000000000000000000000000000000000000000000000080E7E4
:2B595C00000000000000000000000000000000000000000000000000000000000000000000000000000000000080E7B9
:2B598700000000000000000000000000000000000000000000000000000000000000000000000000000000000018FEDF
:2B59B200000000000000000000000000000000000000000000000000000000000000000000000000000000000080E763
:2B59DD00000000000000000000000000000000000000000000000000000000000000000000000000000000000080E738
:2B5A0800800008800008800008800008800008800008000000000020000220000220000220000220000220000280E710
:2B5A3300800008800008800008800008800008800008000000000020000220000220000220000220000220000280E7E5
:2B5A5E00000000000000000000000000000000000000000000000000000000000000000000000000000000000080E7B6
:2B5A8900000000000000000000000000000010040000000000000000000002000000000000000000000000000080D28A
:2B5AB400000000000000000000000000000000000000000000000000000000000000000000000000000000000080E760
:2B5ADF00000000000000000000000000000010040000000000000000000000000000000000000000000000000080F216
:2B5B0A00000000000000000000000000000000000000000000000000000002000000000000000000000000000080C727
:2B5B3500000000000000000000000000000000000000000000000000000000000000000000000000000000000080E7DE
:2B5B6000000000000000000000000000000000000000000000000000000000000000000000000000000000000080E7B3
:2B5B8B00000000000000000000000000000000000000000000000000000000000000000000000000000000000080E788
:2B5BB600000000000000000000000000000000000000000000000000000000000000000000000000000000000080E75D
:2B5BE100000000000000000000000000000000000000000000000000000000000000000000000000000000000080E732
:2B5C0C00000000000000000000000000000000000000000000000000000000000000000000000000000000000080E706
:2B5C3700000000000000000000000000000000000000000000000000000000000000000000000000000000000080E7DB
:2B5C6200000000000000000000000000000000000000000000000000000000000000000000000000000000000080E7B0
:2B5C8D00000000000000000000000000000000000000000000000000000000000000000000000000000000000080E785
:2B5CB800000000000000000000000000000000000000000000000000000000000000000000000000000000000080E75A
:2B5CE300000000000000000000000000000000000000000000000000000000000000000000000000000000000080E72F
:2B5D0E000000000000000000000000000000000000000000000000000000000000000000000000000000000000C0A307
:2B5D3900000000000000000000000000000000000000000000000000000000000000000000000000000000000080E7D8
:2B5D6400000000000000000000000000000000000000000000000000000000000000000000000000000000000080E7AD
:2B5D8F0000000000000000000000000000002400000000000000000000000000000000000000000000000000008085C0
:2B5DBA00000000000000000000000000000000080000000000000000000000000000000000000000000000000080EF47
:2B5DE500000000000000000000000000000040080000000000000000000000000000000000000000000000000080AB20
:2B5E1000000000000000000000000000000008000000000000000000000000000000000000000000000000000000EF70
:2B5E3B00000000000000000000000000000000000000000000000000000000000000000000000000000000000080E7D5
:2B5E6600000000000000000000000000000004000000000000000000000000000000000000000000000000000080A7E6
:2B5E9100000000000000000000000000000000000000000000000000000000000000000000000000000000000080E77F
:2B5EBC00000000000000000000000000000000000000000000000000000000000000000000000000000000000080E754
:2B5EE700000000000000000000000000000008110000000000000000000000000000000000000000000000000000FE79
:2B5F1200000000000000000000000000000020000000000000000000000000000000000000000000000000000080C5FF
:2B5F3D00000000000000000000000000000000000000000000000000000000000000000000000000000000000090F6B3
:2B5F6800000000000000000000000000000000000000000000000000000000000000000000000000000000000090F688
:2B5F9300000000000000000000000000000000000000000000000000000000000000000000000000000000000080E77C
:2B5FBE00000000000000000000000000000000000000000000000000000000000000000000000000000000000080E751
:2B5FE900000000001202000282080000000000200000000000000000000000000000004000000000000000000000CAC3
:2B601400020000000000000080000000000000000000000000000000000000000000000000000000000000000088ED6A
:2B603F00000000000000000000000000000000000000000000000000000000000000000000000000000000000080E7CF
:2B606A00000000001202000202080000000000200000000000000000000000000000004000000000000000000080CA41
:2B609500000000000000000000000000000000000000000000000000000000000000000000000000000000000080E779
:2B60C000000000000000000000000000000000000000000000000000000000000000000000000000000000000080E74E
:2B60EB00020000000000000000000000000000000000000000000000000000000000000000000000000000000008ED93
:2B611600800008800008800008800008800008800008000000000020000220000220000220000220000220000280E7FB
:2B614100800008800008800008800008800008800008000000000020000220000220000220000220000220000280E7D0
:2B616C00000000000000000000000000000000000000000000000000000000000000000000000000000000000080E7A1
:2B619700000000000000000000000000000000000000000000000000000000000000000000000000000000000008EFE6
:2B61C200020000000000000000000000000000000000000000000000000000000000000000000000000000000080E54B
:2B61ED00020000000000000000000000000000000000000000000000000000000000000000000000000000000080E520
:2B621800020000000000000000000000000000000000000000000000000000000000000000000000000000000080E5F4
:2B624300020000000000000000000000000000000000000000000000000000000000000000000000000000000080E5C9
:2B626E00000000000000000000000000000000000000000000000000000000000000000000000000000000000008EF0E
:2B629900000000000000000000000000000000000000000000000000000000000000000000000000000000000080E773
:2B62C400000000000000000000000000000000080000000000000000000000000000000000000000000000000080EF38
:2B62EF000000000000000000000000000000160000000000000000000000000000000000000000000000000000809658
:2B631A00000000000000000000000000000000000000000000000000000000000000000000000000000000000080E7F1
:2B63450002000000000000000000000000003C01000000000000000000000000000000000000000000000000008897CF
:2B637000020000000000000000000000000010020000000000000000000000000000000000000000000000000008FEE8
:2B639B00020000000000000000000000000030000000000000000000000000000000000000000000000000000008DEBF
:2B63C600020000000000000000000000000018000000000000000000000000000000000000000000000000000088F416
:2B63F100000000000000000000000000000038040000000000000000000000000000000000000000000000000000D86D
:2B641C00000000000000000000000000000000020000000000000000000000000000000000000000000000000080E5EE
:2B644700000000000000000000000000000006000000000000000000000000000000000000000000000000000080871D
:2B647200000000000000000000000000000000100000000000000000000000000000000000000000000000000080F778
:2B649D00020000000000000000000000000004000000000000000000000000000000000000000000000000000008AD19
:2B64C800000000000000000000000000000000000000000000000000000000000000000000000000000000000080E742
:2B64F300000000000000000000000000000000020000000000000000000000000000000000000000000000000080E517
:2B651E00000000000000000000000000000000000000000000000000000000000000000000000000000000000080E7EB
:2B654900000000000000000000000000000018000000000000000000000000000000000000000000000000000000FE11
:2B657400020000000000000000000000000000000000000000000000000000000000000000000000000000000008ED05
:2B659F00000000000000000000000000000036020000000000000000000000000000000000000000000000000080B663
:2B65CA00000000000000000000000000000000000000000000000000000000000000000000000000000000000080E73F
:2B65F50000000000000000000000000000001C080000000000000000000000000000000000000000000000000000B6A1
:2B662000000000000000000000000000000010000000000000000000000000000000000000000000000000000080F6C9
:2B664B00020000000000000000000000000010010000000000000000000000000000000000000000000000000008FD0C
:2B667600020000000000000000000000000038000000000000000000000000000000000000000000000000000088D661
:2B66A100020000000000000000000000000018000000000000000000000000000000000000000000000000000088F438
:2B66CC00020000000000000000000000000000000000000000000000000000000000000000000000000000000008EDAC
:2B66F700000000000000000000000000000006100000000000000000000000000000000000000000000000000080974B
:2B672200000000000000000000000000000040000000000000000000000000000000000000000000000000000080A3E9
:2B674D0000000000000000000000000000002400000000000000000000000000000000000000000000000000008085F8
:2B677800000000000000000000000000000000000000000000000000000000000000000000000000000000000080E78F
:2B67A3001200000000000000000000000000600000000000000000000000000000000000000000000000000000089BB6
:2B67CE00020000000000000000000000000000000000000000000000000000000000000000000000000000000080E539
:2B67F900040000000000000000000000000018000000000000000000000000000000000000000000000000000000FA5F
:2B682400020000000000000000000000000080000000000000000000000000000000000000000000000000000000E5E2
:2B684F000200000000000000000000000000060000000000000000000000000000000000000000000000000000808511
:2B687A00000000000000000000000000000040000000000000000000000000000000000000000000000000000008AB00
:2B68A500000000000000000000000000000004000000000000000000000000000000000000000000000000000080A79D
:2B68D000000000000000000000000000000000000000000000000000000000000000000000000000000000000080E736
:2B68FB000000000000000000000000000000A0000000000000000000000000000000000000000000000000000000C50D
:2B692600000000000000000000000000000000000000000000000000000000000000000000000000000000000080E7DF
:2B695100020000000000000000000000000090000000000000000000000000000000000000000000000000000088FC05
:2B697C00020000000000000000000000000000000000000000000000000000000000000000000000000000000008EDF9
:2B69A700020000000000000000000000000036100000000000000000000000000000000000000000000000000008AEC7
:2B69D200020000000000000000000000000020000000000000000000000000000000000000000000000000000008CFA1
:2B69FD0000000000000000000000000000003C0000000000000000000000000000000000000000000000000000009C97
:2B6A2800000000000000000000000000000010080000000000000000000000000000000000000000000000000080FEAD
:2B6A5300000000000000000000000000000030000000000000000000000000000000000000000000000000000080D494
:2B6A7E00000000000000000000000000000018040000000000000000000000000000000000000000000000000000FAD7
:2B6AA900000000000000000000000000000038000000000000000000000000000000000000000000000000000000DCAE
:2B6AD400020000000000000000000000000000000000000000000000000000000000000000000000000000000008EDA0
:2B6AFF0002000000000000000000000000001604000000000000000000000000000000000000000000000000000898B0
:2B6B2A00020000000000000000000000000000010000000000000000000000000000000000000000000000000008EC49
:2B6B550002000000000000000000000000003C00000000000000000000000000000000000000000000000000008896B9
:2B6B8000000000000000000000000000000010100000000000000000000000000000000000000000000000000080E664
:2B6BAB00000000000000000000000000000030000000000000000000000000000000000000000000000000000080D43B
:2B6BD600000000000000000000000000000018010000000000000000000000000000000000000000000000000000FF7C
:2B6C01000C0000000000000000000000000018000000000000000000000000000000000000000000000000000000F252
:2B6C2C00160000000000000000000000000000000000000000000000000000000000000000000000000000000048BD22
:2B6C5700000000000000000000000000000000000000000000000000000000000000000000000000000000000080E7AB
:2B6C8200800008800008800008800008800008800008000000000020000220000220000220000220000220000280E784
:2B6CAD00800008800008800008800008800008800008000000000020000220000220000220000220000220000280E759
:2B6CD800000000000000000000000000000080000000000000000000000000000000000000000000000000000000E72A
:2B6D0300004000000002010000000080000000000000000000000000000000000000000000000000000000000000C2E0
:2B6D2E00000000000000000000000000000000000000000000000000000000000000000000000000000000000080E7D3
:2B6D5900004000000000000000000000000000000000000000000000000000000000000000000000000000000080E36C
